{
  "transactions": [
    {
      "hash": "0x7b4f61f0d7fb6046e715e010768b952423ac04c7643cdf13778609c5ab9cbb0c",
      "transactionType": "CREATE",
      "contractName": "PoolModifyLiquidityTest",
      "contractAddress": "0x3DD5E1E24c8bF9481D1075D74Afd7eC59F81538E",
      "function": null,
      "arguments": [
        "0x38EB8B22Df3Ae7fb21e92881151B365Df14ba967"
      ],
      "transaction": {
        "from": "0x2ced5cC552a856c1D9d5c12D9E0fb96Df8D02434",
        "gas": "0x19bef9",
        "value": "0x0",
        "input": "0x60a0604052348015600e575f80fd5b5060405161174d38038061174d833981016040819052602b91603b565b6001600160a01b03166080526066565b5f60208284031215604a575f80fd5b81516001600160a01b0381168114605f575f80fd5b9392505050565b6080516116846100c95f395f818160790152818160f50152818161022d01528181610294015281816102c501528181610390015281816104fa01528181610550015281816105bf015281816106100152818161077c01526107af01526116845ff3fe60806040526004361061003e575f3560e01c80630a5b11e414610042578063481c6a75146100685780635a6bcfda146100b357806391dd7346146100c6575b5f80fd5b610055610050366004611072565b6100f2565b6040519081526020015b60405180910390f35b348015610073575f80fd5b5061009b7f000000000000000000000000000000000000000000000000000000000000000081565b6040516001600160a01b03909116815260200161005f565b6100556100c13660046110f9565b61020a565b3480156100d1575f80fd5b506100e56100e0366004611157565b610220565b60405161005f91906111f3565b5f7f00000000000000000000000000000000000000000000000000000000000000006001600160a01b03166348c894916040518060c00160405280336001600160a01b03168152602001898152602001888152602001878152602001861515815260200185151581525060405160200161016c919061120c565b6040516020818303038152906040526040518263ffffffff1660e01b815260040161019791906111f3565b5f604051808303815f875af11580156101b2573d5f803e3d5ffd5b505050506040513d5f823e601f3d908101601f191682016040526101d991908101906112f7565b8060200190518101906101ec919061136c565b9050478015610200576102005f3383610662565b5095945050505050565b5f6102188484845f806100f2565b949350505050565b6060336001600160a01b037f00000000000000000000000000000000000000000000000000000000000000001614610256575f80fd5b5f61026383850185611383565b90505f6102be610278836020015160a0902090565b6040840151805160208201516060909201516001600160a01b037f00000000000000000000000000000000000000000000000000000000000000001693923092916106fe565b505090505f7f00000000000000000000000000000000000000000000000000000000000000006001600160a01b0316635a6bcfda8460200151856040015186606001516040518463ffffffff1660e01b815260040161031f9392919061144c565b60408051808303815f875af115801561033a573d5f803e3d5ffd5b505050506040513d601f19601f8201168201806040525081019061035e91906114e9565b5090505f6103ba610374856020015160a0902090565b6040860151805160208201516060909201516001600160a01b037f00000000000000000000000000000000000000000000000000000000000000001693923092916106fe565b505090505f6103d485602001515f0151865f015130610755565b925050505f6103ef866020015160200151875f015130610755565b9250505082600f0b86604001516040015186600f0b61040e919061151f565b1461045f5760405162461bcd60e51b815260206004820152601a60248201527f6c6971756964697479206368616e676520696e636f7272656374000000000000604482015260640160405180910390fd5b5f86604001516040015112156104a7575f82138061047c57505f81135b61048857610488611546565b5f82128061049557505f81125b156104a2576104a2611546565b6104ea565b5f86604001516040015113156104ea575f8212806104c457505f81125b6104d0576104d0611546565b5f8213806104dd57505f81135b156104ea576104ea611546565b5f821215610540578551610540907f0000000000000000000000000000000000000000000000000000000000000000906105238561155a565b60808a015160208b0151516001600160a01b0316939291906107e1565b5f811215610598578551610598907f0000000000000000000000000000000000000000000000000000000000000000906105798461155a565b60808a01516020808c015101516001600160a01b0316939291906107e1565b5f8213156105e757855160a08701516020880151516105e7926001600160a01b03909116917f000000000000000000000000000000000000000000000000000000000000000091908690610ac5565b5f81131561063857855160a08701516020808901510151610638926001600160a01b03909116917f000000000000000000000000000000000000000000000000000000000000000091908590610ac5565b60408051602081018690520160405160208183030381529060405296505050505050505b92915050565b5f6001600160a01b038416610696575f805f8085875af190508061069157610691638549db5960e01b84610baf565b6106f8565b60405163a9059cbb60e01b81526001600160a01b038416600482015282602482015260205f6044835f895af13d15601f3d1160015f511416171691505f81525f60208201525f604082015250806106f8576106f8632c4b17e760e21b85610baf565b50505050565b60408051602681018390526006810184905260038101859052858152603a600c8201205f9282018390526020820183905290829052819081906107428a8a83610be2565b919c909b50909950975050505050505050565b5f808061076b6001600160a01b03871686610c85565b92506107a06001600160a01b0387167f0000000000000000000000000000000000000000000000000000000000000000610c85565b91506107d66001600160a01b037f0000000000000000000000000000000000000000000000000000000000000000168588610d14565b905093509350939050565b801561088e57836001600160a01b031663f5298aca84610810886001600160a01b03166001600160a01b031690565b6040517fffffffff0000000000000000000000000000000000000000000000000000000060e085901b1681526001600160a01b0390921660048301526024820152604481018590526064015b5f604051808303815f87803b158015610873575f80fd5b505af1158015610885573d5f803e3d5ffd5b50505050610abe565b6001600160a01b03851661090557836001600160a01b03166311da60b4836040518263ffffffff1660e01b815260040160206040518083038185885af11580156108da573d5f803e3d5ffd5b50505050506040513d601f19601f820116820180604052508101906108ff919061136c565b50610abe565b604051632961046560e21b81526001600160a01b03868116600483015285169063a5841194906024015f604051808303815f87803b158015610945575f80fd5b505af1158015610957573d5f803e3d5ffd5b505050506001600160a01b03831630146109e9576040516323b872dd60e01b81526001600160a01b0384811660048301528581166024830152604482018490528616906323b872dd906064016020604051808303815f875af11580156109bf573d5f803e3d5ffd5b505050506040513d601f19601f820116820180604052508101906109e39190611574565b50610a5b565b60405163a9059cbb60e01b81526001600160a01b0385811660048301526024820184905286169063a9059cbb906044016020604051808303815f875af1158015610a35573d5f803e3d5ffd5b505050506040513d601f19601f82011682018060405250810190610a599190611574565b505b836001600160a01b03166311da60b46040518163ffffffff1660e01b81526004016020604051808303815f875af1158015610a98573d5f803e3d5ffd5b505050506040513d601f19601f82011682018060405250810190610abc919061136c565b505b5050505050565b80610b0757604051630b0d9c0960e01b81526001600160a01b038681166004830152848116602483015260448201849052851690630b0d9c099060640161085c565b836001600160a01b031663156e29f684610b30886001600160a01b03166001600160a01b031690565b6040517fffffffff0000000000000000000000000000000000000000000000000000000060e085901b1681526001600160a01b0390921660048301526024820152604481018590526064015f604051808303815f87803b158015610b92575f80fd5b505af1158015610ba4573d5f803e3d5ffd5b505050505050505050565b3d60405183815282600482015260406024820152816044820152815f606483013e602080601f8401040260640191508181fd5b5f805f80610bf08686610dab565b604051631afeb18d60e11b815260048101829052600360248201529091505f906001600160a01b038916906335fd631a906044015f60405180830381865afa158015610c3e573d5f803e3d5ffd5b505050506040513d5f823e601f3d908101601f19168201604052610c65919081019061158f565b60208101516040820151606090920151909a919950975095505050505050565b5f6001600160a01b038316610ca557506001600160a01b0381163161065c565b6040516370a0823160e01b81526001600160a01b0383811660048301528416906370a0823190602401602060405180830381865afa158015610ce9573d5f803e3d5ffd5b505050506040513d601f19601f82011682018060405250810190610d0d919061136c565b905061065c565b5f806001600160a01b0384165f526001600160a01b03831660205260405f209050846001600160a01b031663f135baaa826040518263ffffffff1660e01b8152600401610d6391815260200190565b602060405180830381865afa158015610d7e573d5f803e3d5ffd5b505050506040513d601f19601f82011682018060405250810190610da2919061136c565b95945050505050565b5f80610db684610dfb565b90505f610dc460068361163b565b6040805160208101879052908101829052909150606001604051602081830303815290604052805190602001209250505092915050565b6040515f90610e1a908390600690602001918252602082015260400190565b604051602081830303815290604052805190602001209050919050565b634e487b7160e01b5f52604160045260245ffd5b60405160c0810167ffffffffffffffff81118282101715610e6e57610e6e610e37565b60405290565b604051601f8201601f1916810167ffffffffffffffff81118282101715610e9d57610e9d610e37565b604052919050565b6001600160a01b0381168114610eb9575f80fd5b50565b8035600281900b8114610ecd575f80fd5b919050565b5f60a08284031215610ee2575f80fd5b60405160a0810167ffffffffffffffff81118282101715610f0557610f05610e37565b6040529050808235610f1681610ea5565b81526020830135610f2681610ea5565b6020820152604083013562ffffff81168114610f40575f80fd5b6040820152610f5160608401610ebc565b60608201526080830135610f6481610ea5565b6080919091015292915050565b5f60808284031215610f81575f80fd5b6040516080810167ffffffffffffffff81118282101715610fa457610fa4610e37565b604052905080610fb383610ebc565b8152610fc160208401610ebc565b602082015260408301356040820152606083013560608201525092915050565b5f67ffffffffffffffff821115610ffa57610ffa610e37565b50601f01601f191660200190565b5f82601f830112611017575f80fd5b813561102a61102582610fe1565b610e74565b81815284602083860101111561103e575f80fd5b816020850160208301375f918101602001919091529392505050565b8015158114610eb9575f80fd5b8035610ecd8161105a565b5f805f805f6101808688031215611087575f80fd5b6110918787610ed2565b94506110a08760a08801610f71565b935061012086013567ffffffffffffffff8111156110bc575f80fd5b6110c888828901611008565b9350506101408601356110da8161105a565b91506101608601356110eb8161105a565b809150509295509295909350565b5f805f610140848603121561110c575f80fd5b6111168585610ed2565b92506111258560a08601610f71565b915061012084013567ffffffffffffffff811115611141575f80fd5b61114d86828701611008565b9150509250925092565b5f8060208385031215611168575f80fd5b823567ffffffffffffffff81111561117e575f80fd5b8301601f8101851361118e575f80fd5b803567ffffffffffffffff8111156111a4575f80fd5b8560208284010111156111b5575f80fd5b6020919091019590945092505050565b5f81518084528060208401602086015e5f602082860101526020601f19601f83011685010191505092915050565b602081525f61120560208301846111c5565b9392505050565b602081526001600160a01b0382511660208201525f602083015161128160408401826001600160a01b0381511682526001600160a01b03602082015116602083015262ffffff6040820151166040830152606081015160020b60608301526001600160a01b0360808201511660808301525050565b506040838101518051600290810b60e08601526020820151900b610100850152908101516101208401526060908101516101408401528301516101a06101608401526112d16101c08401826111c5565b90506080840151151561018084015260a084015115156101a08401528091505092915050565b5f60208284031215611307575f80fd5b815167ffffffffffffffff81111561131d575f80fd5b8201601f8101841361132d575f80fd5b805161133b61102582610fe1565b81815285602083850101111561134f575f80fd5b8160208401602083015e5f91810160200191909152949350505050565b5f6020828403121561137c575f80fd5b5051919050565b5f60208284031215611393575f80fd5b813567ffffffffffffffff8111156113a9575f80fd5b82016101a081850312156113bb575f80fd5b6113c3610e4b565b81356113ce81610ea5565b81526113dd8560208401610ed2565b60208201526113ef8560c08401610f71565b604082015261014082013567ffffffffffffffff81111561140e575f80fd5b61141a86828501611008565b60608301525061142d6101608301611067565b608082015261143f6101808301611067565b60a0820152949350505050565b6114a481856001600160a01b0381511682526001600160a01b03602082015116602083015262ffffff6040820151166040830152606081015160020b60608301526001600160a01b0360808201511660808301525050565b8251600290810b60a08301526020840151900b60c0820152604083015160e082015260608301516101008201526101406101208201525f610da26101408301846111c5565b5f80604083850312156114fa575f80fd5b505080516020909101519092909150565b634e487b7160e01b5f52601160045260245ffd5b8082018281125f83128015821682158216171561153e5761153e61150b565b505092915050565b634e487b7160e01b5f52600160045260245ffd5b5f600160ff1b820161156e5761156e61150b565b505f0390565b5f60208284031215611584575f80fd5b81516112058161105a565b5f6020828403121561159f575f80fd5b815167ffffffffffffffff8111156115b5575f80fd5b8201601f810184136115c5575f80fd5b805167ffffffffffffffff8111156115df576115df610e37565b8060051b6115ef60208201610e74565b9182526020818401810192908101908784111561160a575f80fd5b6020850194505b8385101561163057845180835260209586019590935090910190611611565b979650505050505050565b8082018082111561065c5761065c61150b56fea26469706673582212206f29d45182fcf2bcd0494d3ddd5d80ecdf6472124bf935014d7a86080f9611b264736f6c634300081a003300000000000000000000000038eb8b22df3ae7fb21e92881151b365df14ba967",
        "nonce": "0x1b",
        "chainId": "0x515"
      },
      "additionalContracts": [],
      "isFixedGasLimit": false
    },
    {
      "hash": "0x906dd6cc5f41de0f2ba1375d10ce829eab863bd4f18c4c4086a6805b0929bc27",
      "transactionType": "CREATE2",
      "contractName": "FeeTakingHook",
      "contractAddress": "0x207f54b4C03C0b6eA424941E70c0510d4a780547",
      "function": null,
      "arguments": [
        "0x38EB8B22Df3Ae7fb21e92881151B365Df14ba967"
      ],
      "transaction": {
        "from": "0x2ced5cC552a856c1D9d5c12D9E0fb96Df8D02434",
        "to": "0x4e59b44847b379578588920cA78FbF26c0B4956C",
        "gas": "0x17238d",
        "value": "0x0",
        "input": "0x0000000000000000000000000000000000000000000000000000000000004e8f60c060405234801561000f575f80fd5b506040516115d93803806115d983398101604081905261002e916102b2565b6001600160a01b0381166080528061004530610057565b506001600160a01b031660a0526102df565b61014a81610145604080516101c0810182525f80825260208201819052918101829052606081018290526080810182905260a0810182905260c0810182905260e08101829052610100810182905261012081018290526101408101829052610160810182905261018081018290526101a081019190915250604080516101c0810182525f808252602082018190529181018290526001606082018190526080820183905260a0820181905260c0820183905260e0820181905261010082018390526101208201839052610140820192909252610160810182905261018081018290526101a081019190915290565b61014d565b50565b80511515612000831615151415806101715750602081015115156110008316151514155b806101885750604081015115156108008316151514155b8061019f5750606081015115156104008316151514155b806101b65750608081015115156102008316151514155b806101cd575060a081015115156101008316151514155b806101e3575060c0810151151560808316151514155b806101f9575060e0810151151560408316151514155b806102105750610100810151151560208316151514155b806102275750610120810151151560108316151514155b8061023e5750610140810151151560088316151514155b806102555750610160810151151560048316151514155b8061026c5750610180810151151560028316151514155b8061028357506101a0810151151560018316151514155b1561029957610299630732d7b560e51b8361029d565b5050565b815f526001600160a01b03811660045260245ffd5b5f602082840312156102c2575f80fd5b81516001600160a01b03811681146102d8575f80fd5b9392505050565b60805160a0516112a16103385f395f81816103df015281816104d1015281816105b1015281816107220152818161085b015281816108fe01528181610a070152610af701525f818161036201526106c401526112a15ff3fe608060405234801561000f575f80fd5b50600436106100fb575f3560e01c806391dd734611610093578063b6a8b0fa11610063578063b6a8b0fa14610258578063c4e833ce14610266578063dc4c90d31461035d578063e1b4af6914610258575f80fd5b806391dd7346146101e15780639f063efc14610201578063a910f80f14610214578063b47b2fb114610222575f80fd5b806353ab431b116100ce57806353ab431b1461015e578063575e24b4146101675780636c2bbe7e146101a55780637dc63812146101d8575f80fd5b8063129a6868146100ff57806321d0ee7014610124578063259982e5146101245780633440d82014610150575b5f80fd5b610107607b81565b6040516001600160801b0390911681526020015b60405180910390f35b610137610132366004610cc3565b61039c565b6040516001600160e01b0319909116815260200161011b565b610137610132366004610d3a565b61010761021f81565b61017a610175366004610da4565b6103b6565b604080516001600160e01b03199094168452602084019290925262ffffff169082015260600161011b565b6101b86101b3366004610dfe565b6103d2565b604080516001600160e01b0319909316835260208301919091520161011b565b61010761271081565b6101f46101ef366004610e89565b6106b7565b60405161011b9190610ec8565b6101b861020f366004610dfe565b610715565b610137610132366004610efd565b610235610230366004610f8d565b6109fa565b604080516001600160e01b03199093168352600f9190910b60208301520161011b565b610137610132366004610ff0565b610350604080516101c0810182525f80825260208201819052918101829052606081018290526080810182905260a0810182905260c0810182905260e08101829052610100810182905261012081018290526101408101829052610160810182905261018081018290526101a081019190915250604080516101c0810182525f808252602082018190529181018290526001606082018190526080820183905260a0820181905260c0820183905260e0820181905261010082018390526101208201839052610140820192909252610160810182905261018081018290526101a081019190915290565b60405161011b919061104a565b6103847f000000000000000000000000000000000000000000000000000000000000000081565b6040516001600160a01b03909116815260200161011b565b5f604051630a85dc2960e01b815260040160405180910390fd5b5f805f604051630a85dc2960e01b815260040160405180910390fd5b5f80336001600160a01b037f00000000000000000000000000000000000000000000000000000000000000001614610408575f80fd5b5f6104138660801d90565b600f0b1215801561043057505f61042a86600f0b90565b600f0b12155b61043c5761043c61116b565b5f61271061021f61044d8860801d90565b6104579190611193565b61046191906111b5565b90505f61271061021f61047489600f0b90565b61047e9190611193565b61048891906111b5565b6040516001600160801b03841681529091507f57143a848ca1934f8edbced05c3d8b6b0bc036184a381189d94cc7a7b8e263cb9060200160405180910390a16001600160a01b037f000000000000000000000000000000000000000000000000000000000000000016630b0d9c0961050360208d018d6111ee565b6040516001600160e01b031960e084901b1681526001600160a01b0390911660048201523060248201526001600160801b03851660448201526064015f604051808303815f87803b158015610556575f80fd5b505af1158015610568573d5f803e3d5ffd5b505050507f57143a848ca1934f8edbced05c3d8b6b0bc036184a381189d94cc7a7b8e263cb6108ae60405161059f91815260200190565b60405180910390a16001600160a01b037f000000000000000000000000000000000000000000000000000000000000000016630b0d9c096105e660408d0160208e016111ee565b6040516001600160e01b031960e084901b1681526001600160a01b0390911660048201523060248201526001600160801b03841660448201526064015f604051808303815f87803b158015610639575f80fd5b505af115801561064b573d5f803e3d5ffd5b50506040516001600160801b03841681527f57143a848ca1934f8edbced05c3d8b6b0bc036184a381189d94cc7a7b8e263cb9250602001905060405180910390a1633615df3f60e11b6001600160801b038216608084901b175b93509350505097509795505050505050565b6060336001600160a01b037f000000000000000000000000000000000000000000000000000000000000000016146107025760405163570c108560e11b815260040160405180910390fd5b61070c8383610b74565b90505b92915050565b5f80336001600160a01b037f0000000000000000000000000000000000000000000000000000000000000000161461074b575f80fd5b6040516108ae81527f57143a848ca1934f8edbced05c3d8b6b0bc036184a381189d94cc7a7b8e263cb9060200160405180910390a15f61078b8660801d90565b600f0b131580156107a857505f6107a286600f0b90565b600f0b13155b6107b4576107b461116b565b5f61271061021f6107c58860801d90565b6107ce90611210565b6107d89190611193565b6107e291906111b5565b90505f61271061021f6107f589600f0b90565b6107fe90611210565b6108089190611193565b61081291906111b5565b6040516001600160801b03841681529091507f57143a848ca1934f8edbced05c3d8b6b0bc036184a381189d94cc7a7b8e263cb9060200160405180910390a16001600160a01b037f000000000000000000000000000000000000000000000000000000000000000016630b0d9c0961088d60208d018d6111ee565b6040516001600160e01b031960e084901b1681526001600160a01b0390911660048201523060248201526001600160801b03851660448201526064015f604051808303815f87803b1580156108e0575f80fd5b505af11580156108f2573d5f803e3d5ffd5b50506001600160a01b037f0000000000000000000000000000000000000000000000000000000000000000169150630b0d9c09905061093760408d0160208e016111ee565b6040516001600160e01b031960e084901b1681526001600160a01b0390911660048201523060248201526001600160801b03841660448201526064015f604051808303815f87803b15801561098a575f80fd5b505af115801561099c573d5f803e3d5ffd5b50506040516001600160801b03841681527f57143a848ca1934f8edbced05c3d8b6b0bc036184a381189d94cc7a7b8e263cb9250602001905060405180910390a16327c18fbf60e21b6001600160801b038216608084901b176106a5565b5f80336001600160a01b037f00000000000000000000000000000000000000000000000000000000000000001614610a30575f80fd5b5f610a3e602088018861123d565b15155f88602001351215151490505f8082610a6f57610a6060208b018b6111ee565b610a6a8960801d90565b610a89565b610a7f60408b0160208c016111ee565b610a8989600f0b90565b915091505f81600f0b1215610aa457610aa181611210565b90505b5f612710610ab3607b84611193565b610abd91906111b5565b604051630b0d9c0960e01b81526001600160a01b0385811660048301523060248301526001600160801b03929092166044820181905292507f000000000000000000000000000000000000000000000000000000000000000090911690630b0d9c09906064015f604051808303815f87803b158015610b3a575f80fd5b505af1158015610b4c573d5f803e3d5ffd5b5050505063b47b2fb160e01b610b6182610c0d565b9550955050505050965096945050505050565b60605f80306001600160a01b03168585604051610b9292919061125c565b5f604051808303815f865af19150503d805f8114610bcb576040519150601f19603f3d011682016040523d82523d5f602084013e610bd0565b606091505b50915091508115610be457915061070f9050565b80515f03610c05576040516314815f4760e31b815260040160405180910390fd5b805160208201fd5b5f6f800000000000000000000000000000008210610c3557610c356393dafdf160e01b610c39565b5090565b805f5260045ffd5b6001600160a01b0381168114610c55575f80fd5b50565b5f60a08284031215610c68575f80fd5b50919050565b5f60808284031215610c68575f80fd5b5f8083601f840112610c8e575f80fd5b50813567ffffffffffffffff811115610ca5575f80fd5b602083019150836020828501011115610cbc575f80fd5b9250929050565b5f805f805f6101608688031215610cd8575f80fd5b8535610ce381610c41565b9450610cf28760208801610c58565b9350610d018760c08801610c6e565b925061014086013567ffffffffffffffff811115610d1d575f80fd5b610d2988828901610c7e565b969995985093965092949392505050565b5f805f805f6101008688031215610d4f575f80fd5b8535610d5a81610c41565b9450610d698760208801610c58565b935060c0860135610d7981610c41565b925060e086013567ffffffffffffffff811115610d1d575f80fd5b5f60608284031215610c68575f80fd5b5f805f805f6101408688031215610db9575f80fd5b8535610dc481610c41565b9450610dd38760208801610c58565b9350610de28760c08801610d94565b925061012086013567ffffffffffffffff811115610d1d575f80fd5b5f805f805f805f6101a0888a031215610e15575f80fd5b8735610e2081610c41565b9650610e2f8960208a01610c58565b9550610e3e8960c08a01610c6e565b94506101408801359350610160880135925061018088013567ffffffffffffffff811115610e6a575f80fd5b610e768a828b01610c7e565b989b979a50959850939692959293505050565b5f8060208385031215610e9a575f80fd5b823567ffffffffffffffff811115610eb0575f80fd5b610ebc85828601610c7e565b90969095509350505050565b602081525f82518060208401528060208501604085015e5f604082850101526040601f19601f83011684010191505092915050565b5f805f805f806101208789031215610f13575f80fd5b8635610f1e81610c41565b9550610f2d8860208901610c58565b945060c0870135610f3d81610c41565b935060e0870135600281900b8114610f53575f80fd5b925061010087013567ffffffffffffffff811115610f6f575f80fd5b610f7b89828a01610c7e565b979a9699509497509295939492505050565b5f805f805f806101608789031215610fa3575f80fd5b8635610fae81610c41565b9550610fbd8860208901610c58565b9450610fcc8860c08901610d94565b9350610120870135925061014087013567ffffffffffffffff811115610f6f575f80fd5b5f805f805f806101208789031215611006575f80fd5b863561101181610c41565b95506110208860208901610c58565b945060c0870135935060e0870135925061010087013567ffffffffffffffff811115610f6f575f80fd5b8151151581526101c081016020830151611068602084018215159052565b50604083015161107c604084018215159052565b506060830151611090606084018215159052565b5060808301516110a4608084018215159052565b5060a08301516110b860a084018215159052565b5060c08301516110cc60c084018215159052565b5060e08301516110e060e084018215159052565b506101008301516110f661010084018215159052565b5061012083015161110c61012084018215159052565b5061014083015161112261014084018215159052565b5061016083015161113861016084018215159052565b5061018083015161114e61018084018215159052565b506101a08301516111646101a084018215159052565b5092915050565b634e487b7160e01b5f52600160045260245ffd5b634e487b7160e01b5f52601160045260245ffd5b6001600160801b0381811683821602908116908181146111645761116461117f565b5f6001600160801b038316806111d957634e487b7160e01b5f52601260045260245ffd5b806001600160801b0384160491505092915050565b5f602082840312156111fe575f80fd5b813561120981610c41565b9392505050565b5f81600f0b6f7fffffffffffffffffffffffffffffff1981036112355761123561117f565b5f0392915050565b5f6020828403121561124d575f80fd5b81358015158114611209575f80fd5b818382375f910190815291905056fea2646970667358221220eccb8447fa7f4a35c0f36bf43f1f71a3eaeca8ab46262dba7c7ee71598aecc4064736f6c634300081a003300000000000000000000000038eb8b22df3ae7fb21e92881151b365df14ba967",
        "nonce": "0x1c",
        "chainId": "0x515"
      },
      "additionalContracts": [],
      "isFixedGasLimit": false
    },
    {
      "hash": "0xccdf1c1b50b86eafbf333dde849015a1f22d872e124b640ecfd64beadec8b2af",
      "transactionType": "CALL",
      "contractName": null,
      "contractAddress": "0x38EB8B22Df3Ae7fb21e92881151B365Df14ba967",
      "function": "initialize((address,address,uint24,int24,address),uint160,bytes)",
      "arguments": [
        "(0x6aD83000194DFCf9a0869091B2Ea7D121033163E, 0xe61398b1Cb0FBED8268808A983Ad71ECFE2e1Ee9, 100, 2, 0x207f54b4C03C0b6eA424941E70c0510d4a780547)",
        "79228162514264337593543950336",
        "0x"
      ],
      "transaction": {
        "from": "0x2ced5cC552a856c1D9d5c12D9E0fb96Df8D02434",
        "to": "0x38EB8B22Df3Ae7fb21e92881151B365Df14ba967",
        "gas": "0x13648",
        "value": "0x0",
        "input": "0x695c5bf50000000000000000000000006ad83000194dfcf9a0869091b2ea7d121033163e000000000000000000000000e61398b1cb0fbed8268808a983ad71ecfe2e1ee900000000000000000000000000000000000000000000000000000000000000640000000000000000000000000000000000000000000000000000000000000002000000000000000000000000207f54b4c03c0b6ea424941e70c0510d4a780547000000000000000000000000000000000000000100000000000000000000000000000000000000000000000000000000000000000000000000000000000000e00000000000000000000000000000000000000000000000000000000000000000",
        "nonce": "0x1d",
        "chainId": "0x515"
      },
      "additionalContracts": [],
      "isFixedGasLimit": false
    },
    {
      "hash": "0x3cc6b974d084a482c0a6a7e615ca893915da7e457beb9f42cea1eeb29368d97b",
      "transactionType": "CALL",
      "contractName": null,
      "contractAddress": "0x6aD83000194DFCf9a0869091B2Ea7D121033163E",
      "function": "mint(address,uint256)",
      "arguments": [
        "0x38EB8B22Df3Ae7fb21e92881151B365Df14ba967",
        "100000000000000000000"
      ],
      "transaction": {
        "from": "0x2ced5cC552a856c1D9d5c12D9E0fb96Df8D02434",
        "to": "0x6aD83000194DFCf9a0869091B2Ea7D121033163E",
        "gas": "0xc3ab",
        "value": "0x0",
        "input": "0x40c10f1900000000000000000000000038eb8b22df3ae7fb21e92881151b365df14ba9670000000000000000000000000000000000000000000000056bc75e2d63100000",
        "nonce": "0x1e",
        "chainId": "0x515"
      },
      "additionalContracts": [],
      "isFixedGasLimit": false
    },
    {
      "hash": "0x9ffbd7c56cae69cfb2c6ff0d0644f890c4e80b6243ed4b2ba889ccfc5e72d126",
      "transactionType": "CALL",
      "contractName": null,
      "contractAddress": "0xe61398b1Cb0FBED8268808A983Ad71ECFE2e1Ee9",
      "function": "mint(address,uint256)",
      "arguments": [
        "0x38EB8B22Df3Ae7fb21e92881151B365Df14ba967",
        "100000000000000000000"
      ],
      "transaction": {
        "from": "0x2ced5cC552a856c1D9d5c12D9E0fb96Df8D02434",
        "to": "0xe61398b1Cb0FBED8268808A983Ad71ECFE2e1Ee9",
        "gas": "0xc3ab",
        "value": "0x0",
        "input": "0x40c10f1900000000000000000000000038eb8b22df3ae7fb21e92881151b365df14ba9670000000000000000000000000000000000000000000000056bc75e2d63100000",
        "nonce": "0x1f",
        "chainId": "0x515"
      },
      "additionalContracts": [],
      "isFixedGasLimit": false
    },
    {
      "hash": "0x5fe47d40f525660f4ca6ab189100b201096751e6e46f3195c970c32245b414db",
      "transactionType": "CALL",
      "contractName": null,
      "contractAddress": "0x6aD83000194DFCf9a0869091B2Ea7D121033163E",
      "function": "mint(address,uint256)",
      "arguments": [
        "0x2ced5cC552a856c1D9d5c12D9E0fb96Df8D02434",
        "100000000000000000000"
      ],
      "transaction": {
        "from": "0x2ced5cC552a856c1D9d5c12D9E0fb96Df8D02434",
        "to": "0x6aD83000194DFCf9a0869091B2Ea7D121033163E",
        "gas": "0xc3ab",
        "value": "0x0",
        "input": "0x40c10f190000000000000000000000002ced5cc552a856c1d9d5c12d9e0fb96df8d024340000000000000000000000000000000000000000000000056bc75e2d63100000",
        "nonce": "0x20",
        "chainId": "0x515"
      },
      "additionalContracts": [],
      "isFixedGasLimit": false
    },
    {
      "hash": "0x34e0a7b9de5fd303fd05058827affa619f9c562bf846619e9e9eded2dcd912f5",
      "transactionType": "CALL",
      "contractName": null,
      "contractAddress": "0xe61398b1Cb0FBED8268808A983Ad71ECFE2e1Ee9",
      "function": "mint(address,uint256)",
      "arguments": [
        "0x2ced5cC552a856c1D9d5c12D9E0fb96Df8D02434",
        "100000000000000000000"
      ],
      "transaction": {
        "from": "0x2ced5cC552a856c1D9d5c12D9E0fb96Df8D02434",
        "to": "0xe61398b1Cb0FBED8268808A983Ad71ECFE2e1Ee9",
        "gas": "0xc3ab",
        "value": "0x0",
        "input": "0x40c10f190000000000000000000000002ced5cc552a856c1d9d5c12d9e0fb96df8d024340000000000000000000000000000000000000000000000056bc75e2d63100000",
        "nonce": "0x21",
        "chainId": "0x515"
      },
      "additionalContracts": [],
      "isFixedGasLimit": false
    },
    {
      "hash": "0x8805dc703aefa8b39e7bcac67867864f8ecd2a62498df6643a1c371ba60dbd76",
      "transactionType": "CALL",
      "contractName": null,
      "contractAddress": "0x6aD83000194DFCf9a0869091B2Ea7D121033163E",
      "function": "approve(address,uint256)",
      "arguments": [
        "0x3DD5E1E24c8bF9481D1075D74Afd7eC59F81538E",
        "100000000000000000000"
      ],
      "transaction": {
        "from": "0x2ced5cC552a856c1D9d5c12D9E0fb96Df8D02434",
        "to": "0x6aD83000194DFCf9a0869091B2Ea7D121033163E",
        "gas": "0x10916",
        "value": "0x0",
        "input": "0x095ea7b30000000000000000000000003dd5e1e24c8bf9481d1075d74afd7ec59f81538e0000000000000000000000000000000000000000000000056bc75e2d63100000",
        "nonce": "0x22",
        "chainId": "0x515"
      },
      "additionalContracts": [],
      "isFixedGasLimit": false
    },
    {
      "hash": "0x568bb518e385b3e6d251526582b4d5bb8d02f56050eb7229f5a46536071f3a51",
      "transactionType": "CALL",
      "contractName": null,
      "contractAddress": "0xe61398b1Cb0FBED8268808A983Ad71ECFE2e1Ee9",
      "function": "approve(address,uint256)",
      "arguments": [
        "0x3DD5E1E24c8bF9481D1075D74Afd7eC59F81538E",
        "100000000000000000000"
      ],
      "transaction": {
        "from": "0x2ced5cC552a856c1D9d5c12D9E0fb96Df8D02434",
        "to": "0xe61398b1Cb0FBED8268808A983Ad71ECFE2e1Ee9",
        "gas": "0x10916",
        "value": "0x0",
        "input": "0x095ea7b30000000000000000000000003dd5e1e24c8bf9481d1075d74afd7ec59f81538e0000000000000000000000000000000000000000000000056bc75e2d63100000",
        "nonce": "0x23",
        "chainId": "0x515"
      },
      "additionalContracts": [],
      "isFixedGasLimit": false
    },
    {
      "hash": "0xbf6c2364775334261e3807ead0216cd7e08f059cae0683a75cd25338616324c2",
      "transactionType": "CALL",
      "contractName": "PoolModifyLiquidityTest",
      "contractAddress": "0x3DD5E1E24c8bF9481D1075D74Afd7eC59F81538E",
      "function": "modifyLiquidity((address,address,uint24,int24,address),(int24,int24,int256,bytes32),bytes)",
      "arguments": [
        "(0x6aD83000194DFCf9a0869091B2Ea7D121033163E, 0xe61398b1Cb0FBED8268808A983Ad71ECFE2e1Ee9, 100, 2, 0x207f54b4C03C0b6eA424941E70c0510d4a780547)",
        "(-120, 120, 1000000000000000000, 0x0000000000000000000000000000000000000000000000000000000000000000)",
        "0x"
      ],
      "transaction": {
        "from": "0x2ced5cC552a856c1D9d5c12D9E0fb96Df8D02434",
        "to": "0x3DD5E1E24c8bF9481D1075D74Afd7eC59F81538E",
        "gas": "0x628af",
        "value": "0x0",
        "input": "0x5a6bcfda0000000000000000000000006ad83000194dfcf9a0869091b2ea7d121033163e000000000000000000000000e61398b1cb0fbed8268808a983ad71ecfe2e1ee900000000000000000000000000000000000000000000000000000000000000640000000000000000000000000000000000000000000000000000000000000002000000000000000000000000207f54b4c03c0b6ea424941e70c0510d4a780547ffffffffffffffffffffffffffffffffffffffffffffffffffffffffffffff8800000000000000000000000000000000000000000000000000000000000000780000000000000000000000000000000000000000000000000de0b6b3a7640000000000000000000000000000000000000000000000000000000000000000000000000000000000000000000000000000000000000000000000000000000001400000000000000000000000000000000000000000000000000000000000000000",
        "nonce": "0x24",
        "chainId": "0x515"
      },
      "additionalContracts": [],
      "isFixedGasLimit": false
    }
  ],
  "receipts": [
    {
      "status": "0x1",
      "cumulativeGasUsed": "0x2111e9",
      "logs": [],
      "logsBloom": "0x00000000000000000000000000000000000000000000000000000000000000000000000000000000000000000000000000000000000000000000000000000000000000000000000000000000000000000000000000000000000000000000000000000000000000000000000000000000000000000000000000000000000000000000000000000000000000000000000000000000000000000000000000000000000000000000000000000000000000000000000000000000000000000000000000000000000000000000000000000000000000000000000000000000000000000000000000000000000000000000000000000000000000000000000000000000",
      "type": "0x2",
      "transactionHash": "0x7b4f61f0d7fb6046e715e010768b952423ac04c7643cdf13778609c5ab9cbb0c",
      "transactionIndex": "0x5",
      "blockHash": "0x37effd283e9807a32c42ff56d53a26f96d87c63411781244cc5efc37225706af",
      "blockNumber": "0x24a302",
      "gasUsed": "0x13cdfb",
      "effectiveGasPrice": "0xf433c",
      "from": "0x2ced5cC552a856c1D9d5c12D9E0fb96Df8D02434",
      "to": null,
      "contractAddress": "0x3DD5E1E24c8bF9481D1075D74Afd7eC59F81538E",
      "l1BaseFeeScalar": "0x7d0",
      "l1BlobBaseFee": "0x1",
      "l1BlobBaseFeeScalar": "0xdbba0",
      "l1Fee": "0x13c2a09a0e8",
      "l1GasPrice": "0x32c94a6ab",
      "l1GasUsed": "0xc28b"
    },
    {
      "status": "0x1",
      "cumulativeGasUsed": "0x35d7c5",
      "logs": [],
      "logsBloom": "0x00000000000000000000000000000000000000000000000000000000000000000000000000000000000000000000000000000000000000000000000000000000000000000000000000000000000000000000000000000000000000000000000000000000000000000000000000000000000000000000000000000000000000000000000000000000000000000000000000000000000000000000000000000000000000000000000000000000000000000000000000000000000000000000000000000000000000000000000000000000000000000000000000000000000000000000000000000000000000000000000000000000000000000000000000000000",
      "type": "0x2",
      "transactionHash": "0x906dd6cc5f41de0f2ba1375d10ce829eab863bd4f18c4c4086a6805b0929bc27",
      "transactionIndex": "0x9",
      "blockHash": "0x37effd283e9807a32c42ff56d53a26f96d87c63411781244cc5efc37225706af",
      "blockNumber": "0x24a302",
      "gasUsed": "0x10c08c",
      "effectiveGasPrice": "0xf433c",
      "from": "0x2ced5cC552a856c1D9d5c12D9E0fb96Df8D02434",
      "to": "0x4e59b44847b379578588920cA78FbF26c0B4956C",
      "contractAddress": null,
      "l1BaseFeeScalar": "0x7d0",
      "l1BlobBaseFee": "0x1",
      "l1BlobBaseFeeScalar": "0xdbba0",
      "l1Fee": "0x1162f44f5a3",
      "l1GasPrice": "0x32c94a6ab",
      "l1GasUsed": "0xab2c"
    },
    {
      "status": "0x1",
      "cumulativeGasUsed": "0x97c9e",
      "logs": [
        {
          "address": "0x38EB8B22Df3Ae7fb21e92881151B365Df14ba967",
          "topics": [
            "0xdd466e674ea557f56295e2d0218a125ea4b4f0f6f3307b95f85e6110838d6438",
            "0x36b779a724d641d771190a6ee7ab0f2eccf4c1b3ab98e32a4b632f4cad808d97",
            "0x0000000000000000000000006ad83000194dfcf9a0869091b2ea7d121033163e",
            "0x000000000000000000000000e61398b1cb0fbed8268808a983ad71ecfe2e1ee9"
          ],
          "data": "0x00000000000000000000000000000000000000000000000000000000000000640000000000000000000000000000000000000000000000000000000000000002000000000000000000000000207f54b4c03c0b6ea424941e70c0510d4a78054700000000000000000000000000000000000000010000000000000000000000000000000000000000000000000000000000000000000000000000000000000000",
          "blockHash": "0x9f3c5047e52150b151b96029f4b05bb3f7c27aa3110f44f295852cc2e8ef3551",
          "blockNumber": "0x24a303",
          "transactionHash": "0xccdf1c1b50b86eafbf333dde849015a1f22d872e124b640ecfd64beadec8b2af",
          "transactionIndex": "0x6",
          "logIndex": "0x7",
          "removed": false
        }
      ],
      "logsBloom": "0x00000000000000000000000000000000000000000000000000000000000000000000000000000000000000000000000080000000000000000000000000000000000200000000000000000000000000000000000000000000000000000000000000000000000000000000004000000000000000000000000000010000000000000000000000000008000400000000000000000001000000000000200000200000000000000000000000000000080000000000000000000400000000000000000200000000000000000000000000000000000000000000000000000000000000000000002001000000000000000000000000004000000000000000000000000000",
      "type": "0x2",
      "transactionHash": "0xccdf1c1b50b86eafbf333dde849015a1f22d872e124b640ecfd64beadec8b2af",
      "transactionIndex": "0x6",
      "blockHash": "0x9f3c5047e52150b151b96029f4b05bb3f7c27aa3110f44f295852cc2e8ef3551",
      "blockNumber": "0x24a303",
      "gasUsed": "0xd429",
      "effectiveGasPrice": "0xf433c",
      "from": "0x2ced5cC552a856c1D9d5c12D9E0fb96Df8D02434",
      "to": "0x38EB8B22Df3Ae7fb21e92881151B365Df14ba967",
      "contractAddress": null,
      "l1BaseFeeScalar": "0x7d0",
      "l1BlobBaseFee": "0x1",
      "l1BlobBaseFeeScalar": "0xdbba0",
      "l1Fee": "0xf4d2eaa11",
      "l1GasPrice": "0x32c94a6ab",
      "l1GasUsed": "0x96a"
    },
    {
      "status": "0x1",
      "cumulativeGasUsed": "0x3a1b9",
      "logs": [
        {
          "address": "0x6aD83000194DFCf9a0869091B2Ea7D121033163E",
          "topics": [
            "0xddf252ad1be2c89b69c2b068fc378daa952ba7f163c4a11628f55a4df523b3ef",
            "0x0000000000000000000000000000000000000000000000000000000000000000",
            "0x00000000000000000000000038eb8b22df3ae7fb21e92881151b365df14ba967"
          ],
          "data": "0x0000000000000000000000000000000000000000000000056bc75e2d63100000",
          "blockHash": "0x1d37e7851d07ac52542685024e65f02b1016bed4768e6dae9f1d65c110b10499",
          "blockNumber": "0x24a304",
          "transactionHash": "0x3cc6b974d084a482c0a6a7e615ca893915da7e457beb9f42cea1eeb29368d97b",
          "transactionIndex": "0x4",
          "logIndex": "0x3",
          "removed": false
        }
      ],
      "logsBloom": "0x00000000000000000000000000000000000000000000000000000000000000000000000000000000000000000000000000000000010000000000000000000000000000000000000000000008000000000000000000000000000000200000000000000000020000000000002000000800000000000000000000000010000000000000000020000000000000000000000000000000000000000000000000000000000000000000000000000000000000000000000000000000002000000000000000000002000000000000000000000000000200000000000000000000000020000000000000000000000000000000000000000000000000000000000000000000",
      "type": "0x2",
      "transactionHash": "0x3cc6b974d084a482c0a6a7e615ca893915da7e457beb9f42cea1eeb29368d97b",
      "transactionIndex": "0x4",
      "blockHash": "0x1d37e7851d07ac52542685024e65f02b1016bed4768e6dae9f1d65c110b10499",
      "blockNumber": "0x24a304",
      "gasUsed": "0x85cb",
      "effectiveGasPrice": "0xf433c",
      "from": "0x2ced5cC552a856c1D9d5c12D9E0fb96Df8D02434",
      "to": "0x6aD83000194DFCf9a0869091B2Ea7D121033163E",
      "contractAddress": null,
      "l1BaseFeeScalar": "0x7d0",
      "l1BlobBaseFee": "0x1",
      "l1BlobBaseFeeScalar": "0xdbba0",
      "l1Fee": "0xa284215b0",
      "l1GasPrice": "0x32c94a6ab",
      "l1GasUsed": "0x640"
    },
    {
      "status": "0x1",
      "cumulativeGasUsed": "0x42784",
      "logs": [
        {
          "address": "0xe61398b1Cb0FBED8268808A983Ad71ECFE2e1Ee9",
          "topics": [
            "0xddf252ad1be2c89b69c2b068fc378daa952ba7f163c4a11628f55a4df523b3ef",
            "0x0000000000000000000000000000000000000000000000000000000000000000",
            "0x00000000000000000000000038eb8b22df3ae7fb21e92881151b365df14ba967"
          ],
          "data": "0x0000000000000000000000000000000000000000000000056bc75e2d63100000",
          "blockHash": "0x1d37e7851d07ac52542685024e65f02b1016bed4768e6dae9f1d65c110b10499",
          "blockNumber": "0x24a304",
          "transactionHash": "0x9ffbd7c56cae69cfb2c6ff0d0644f890c4e80b6243ed4b2ba889ccfc5e72d126",
          "transactionIndex": "0x5",
          "logIndex": "0x4",
          "removed": false
        }
      ],
      "logsBloom": "0x00000000000000000000000000000000000000000000000000000000000000000000000000000000000000000000000000000000000000000000000020000000000000000000000000000008000000000000000000000000000000200000000000000000020000000000000000000800000000000000000000000010000000000000000000000000000000000000000000000000000000000000000000000000000000000000000010000000000000000000000000000000002000000000000000000002000000000000000000000000000200000000000000000000000020000000000000000200000000000000000000000000000000000000000000000000",
      "type": "0x2",
      "transactionHash": "0x9ffbd7c56cae69cfb2c6ff0d0644f890c4e80b6243ed4b2ba889ccfc5e72d126",
      "transactionIndex": "0x5",
      "blockHash": "0x1d37e7851d07ac52542685024e65f02b1016bed4768e6dae9f1d65c110b10499",
      "blockNumber": "0x24a304",
      "gasUsed": "0x85cb",
      "effectiveGasPrice": "0xf433c",
      "from": "0x2ced5cC552a856c1D9d5c12D9E0fb96Df8D02434",
      "to": "0xe61398b1Cb0FBED8268808A983Ad71ECFE2e1Ee9",
      "contractAddress": null,
      "l1BaseFeeScalar": "0x7d0",
      "l1BlobBaseFee": "0x1",
      "l1BlobBaseFeeScalar": "0xdbba0",
      "l1Fee": "0xa284215b0",
      "l1GasPrice": "0x32c94a6ab",
      "l1GasUsed": "0x640"
    },
    {
      "status": "0x1",
      "cumulativeGasUsed": "0x4ad4f",
      "logs": [
        {
          "address": "0x6aD83000194DFCf9a0869091B2Ea7D121033163E",
          "topics": [
            "0xddf252ad1be2c89b69c2b068fc378daa952ba7f163c4a11628f55a4df523b3ef",
            "0x0000000000000000000000000000000000000000000000000000000000000000",
            "0x0000000000000000000000002ced5cc552a856c1d9d5c12d9e0fb96df8d02434"
          ],
          "data": "0x0000000000000000000000000000000000000000000000056bc75e2d63100000",
          "blockHash": "0x1d37e7851d07ac52542685024e65f02b1016bed4768e6dae9f1d65c110b10499",
          "blockNumber": "0x24a304",
          "transactionHash": "0x5fe47d40f525660f4ca6ab189100b201096751e6e46f3195c970c32245b414db",
          "transactionIndex": "0x6",
          "logIndex": "0x5",
          "removed": false
        }
      ],
      "logsBloom": "0x00000000000000000000000000000000000800000000000000000000000000000000000000000000000000000000000000000000010000000000000000000000000000000000000000000008100000000000000000000000000000000000000000000000020000000000002000000800000000000000000000000010000000000000000020000000000000000000000000000000000000008000000000000000000000000000000000000000000000000000000000000000000000000000000000000002000000000000000000000000000000000000000000000000000020000000000000000000000000000000000000000000000000000000000000000000",
      "type": "0x2",
      "transactionHash": "0x5fe47d40f525660f4ca6ab189100b201096751e6e46f3195c970c32245b414db",
      "transactionIndex": "0x6",
      "blockHash": "0x1d37e7851d07ac52542685024e65f02b1016bed4768e6dae9f1d65c110b10499",
      "blockNumber": "0x24a304",
      "gasUsed": "0x85cb",
      "effectiveGasPrice": "0xf433c",
      "from": "0x2ced5cC552a856c1D9d5c12D9E0fb96Df8D02434",
      "to": "0x6aD83000194DFCf9a0869091B2Ea7D121033163E",
      "contractAddress": null,
      "l1BaseFeeScalar": "0x7d0",
      "l1BlobBaseFee": "0x1",
      "l1BlobBaseFeeScalar": "0xdbba0",
      "l1Fee": "0xa284215b0",
      "l1GasPrice": "0x32c94a6ab",
      "l1GasUsed": "0x640"
    },
    {
      "status": "0x1",
      "cumulativeGasUsed": "0x5331a",
      "logs": [
        {
          "address": "0xe61398b1Cb0FBED8268808A983Ad71ECFE2e1Ee9",
          "topics": [
            "0xddf252ad1be2c89b69c2b068fc378daa952ba7f163c4a11628f55a4df523b3ef",
            "0x0000000000000000000000000000000000000000000000000000000000000000",
            "0x0000000000000000000000002ced5cc552a856c1d9d5c12d9e0fb96df8d02434"
          ],
          "data": "0x0000000000000000000000000000000000000000000000056bc75e2d63100000",
          "blockHash": "0x1d37e7851d07ac52542685024e65f02b1016bed4768e6dae9f1d65c110b10499",
          "blockNumber": "0x24a304",
          "transactionHash": "0x34e0a7b9de5fd303fd05058827affa619f9c562bf846619e9e9eded2dcd912f5",
          "transactionIndex": "0x7",
          "logIndex": "0x6",
          "removed": false
        }
      ],
      "logsBloom": "0x00000000000000000000000000000000000800000000000000000000000000000000000000000000000000000000000000000000000000000000000020000000000000000000000000000008100000000000000000000000000000000000000000000000020000000000000000000800000000000000000000000010000000000000000000000000000000000000000000000000000000008000000000000000000000000000000010000000000000000000000000000000000000000000000000000002000000000000000000000000000000000000000000000000000020000000000000000200000000000000000000000000000000000000000000000000",
      "type": "0x2",
      "transactionHash": "0x34e0a7b9de5fd303fd05058827affa619f9c562bf846619e9e9eded2dcd912f5",
      "transactionIndex": "0x7",
      "blockHash": "0x1d37e7851d07ac52542685024e65f02b1016bed4768e6dae9f1d65c110b10499",
      "blockNumber": "0x24a304",
      "gasUsed": "0x85cb",
      "effectiveGasPrice": "0xf433c",
      "from": "0x2ced5cC552a856c1D9d5c12D9E0fb96Df8D02434",
      "to": "0xe61398b1Cb0FBED8268808A983Ad71ECFE2e1Ee9",
      "contractAddress": null,
      "l1BaseFeeScalar": "0x7d0",
      "l1BlobBaseFee": "0x1",
      "l1BlobBaseFeeScalar": "0xdbba0",
      "l1Fee": "0xa284215b0",
      "l1GasPrice": "0x32c94a6ab",
      "l1GasUsed": "0x640"
    },
    {
      "status": "0x1",
      "cumulativeGasUsed": "0x6bab4",
      "logs": [
        {
          "address": "0x6aD83000194DFCf9a0869091B2Ea7D121033163E",
          "topics": [
            "0x8c5be1e5ebec7d5bd14f71427d1e84f3dd0314c0f7b2291e5b200ac8c7c3b925",
            "0x0000000000000000000000002ced5cc552a856c1d9d5c12d9e0fb96df8d02434",
            "0x0000000000000000000000003dd5e1e24c8bf9481d1075d74afd7ec59f81538e"
          ],
          "data": "0x0000000000000000000000000000000000000000000000056bc75e2d63100000",
          "blockHash": "0x1d37e7851d07ac52542685024e65f02b1016bed4768e6dae9f1d65c110b10499",
          "blockNumber": "0x24a304",
          "transactionHash": "0x8805dc703aefa8b39e7bcac67867864f8ecd2a62498df6643a1c371ba60dbd76",
          "transactionIndex": "0x9",
          "logIndex": "0x8",
          "removed": false
        }
      ],
      "logsBloom": "0x00000000000000000000000000000000000800000000000000000000000000000000000000040000000000000000000000000000010000000000000000200000000000000000000000000000100000000000000000000000000000000000000000000000000000000000002000000000000000000000000000000000000000000000000020000000000000000000000000000000000000008000000000000000020000000000000000000000000000000000000000000000000000000000000000000000000000000000000000000000000000000000000000000000000000000010000100000000000000000000000000000008000000000000000000000000",
      "type": "0x2",
      "transactionHash": "0x8805dc703aefa8b39e7bcac67867864f8ecd2a62498df6643a1c371ba60dbd76",
      "transactionIndex": "0x9",
      "blockHash": "0x1d37e7851d07ac52542685024e65f02b1016bed4768e6dae9f1d65c110b10499",
      "blockNumber": "0x24a304",
      "gasUsed": "0xb542",
      "effectiveGasPrice": "0xf433c",
      "from": "0x2ced5cC552a856c1D9d5c12D9E0fb96Df8D02434",
      "to": "0x6aD83000194DFCf9a0869091B2Ea7D121033163E",
      "contractAddress": null,
      "l1BaseFeeScalar": "0x7d0",
      "l1BlobBaseFee": "0x1",
      "l1BlobBaseFeeScalar": "0xdbba0",
      "l1Fee": "0xa284215b0",
      "l1GasPrice": "0x32c94a6ab",
      "l1GasUsed": "0x640"
    },
    {
      "status": "0x1",
      "cumulativeGasUsed": "0x76ff6",
      "logs": [
        {
          "address": "0xe61398b1Cb0FBED8268808A983Ad71ECFE2e1Ee9",
          "topics": [
            "0x8c5be1e5ebec7d5bd14f71427d1e84f3dd0314c0f7b2291e5b200ac8c7c3b925",
            "0x0000000000000000000000002ced5cc552a856c1d9d5c12d9e0fb96df8d02434",
            "0x0000000000000000000000003dd5e1e24c8bf9481d1075d74afd7ec59f81538e"
          ],
          "data": "0x0000000000000000000000000000000000000000000000056bc75e2d63100000",
          "blockHash": "0x1d37e7851d07ac52542685024e65f02b1016bed4768e6dae9f1d65c110b10499",
          "blockNumber": "0x24a304",
          "transactionHash": "0x568bb518e385b3e6d251526582b4d5bb8d02f56050eb7229f5a46536071f3a51",
          "transactionIndex": "0xa",
          "logIndex": "0x9",
          "removed": false
        }
      ],
      "logsBloom": "0x00000000000000000000000000000000000800000000000000000000000000000000000000040000000000000000000000000000000000000000000020200000000000000000000000000000100000000000000000000000000000000000000000000000000000000000000000000000000000000000000000000000000000000000000000000000000000000000000000000000000000008000000000000000020000000000000010000000000000000000000000000000000000000000000000000000000000000000000000000000000000000000000000000000000000000010000100000200000000000000000000000008000000000000000000000000",
      "type": "0x2",
      "transactionHash": "0x568bb518e385b3e6d251526582b4d5bb8d02f56050eb7229f5a46536071f3a51",
      "transactionIndex": "0xa",
      "blockHash": "0x1d37e7851d07ac52542685024e65f02b1016bed4768e6dae9f1d65c110b10499",
      "blockNumber": "0x24a304",
      "gasUsed": "0xb542",
      "effectiveGasPrice": "0xf433c",
      "from": "0x2ced5cC552a856c1D9d5c12D9E0fb96Df8D02434",
      "to": "0xe61398b1Cb0FBED8268808A983Ad71ECFE2e1Ee9",
      "contractAddress": null,
      "l1BaseFeeScalar": "0x7d0",
      "l1BlobBaseFee": "0x1",
      "l1BlobBaseFeeScalar": "0xdbba0",
      "l1Fee": "0xa284215b0",
      "l1GasPrice": "0x32c94a6ab",
      "l1GasUsed": "0x640"
    },
    {
      "status": "0x1",
      "cumulativeGasUsed": "0x136efb",
      "logs": [
        {
          "address": "0x38EB8B22Df3Ae7fb21e92881151B365Df14ba967",
          "topics": [
            "0xf208f4912782fd25c7f114ca3723a2d5dd6f3bcc3ac8db5af63baa85f711d5ec",
            "0x36b779a724d641d771190a6ee7ab0f2eccf4c1b3ab98e32a4b632f4cad808d97",
            "0x0000000000000000000000003dd5e1e24c8bf9481d1075d74afd7ec59f81538e"
          ],
          "data": "0xffffffffffffffffffffffffffffffffffffffffffffffffffffffffffffff8800000000000000000000000000000000000000000000000000000000000000780000000000000000000000000000000000000000000000000de0b6b3a76400000000000000000000000000000000000000000000000000000000000000000000",
          "blockHash": "0xfb077d992fdc95e2428db7b706b36389aa67633de841d08cf4e828f4f16d43c7",
          "blockNumber": "0x24a305",
          "transactionHash": "0xbf6c2364775334261e3807ead0216cd7e08f059cae0683a75cd25338616324c2",
          "transactionIndex": "0x2",
          "logIndex": "0x0",
          "removed": false
        },
        {
          "address": "0x207f54b4C03C0b6eA424941E70c0510d4a780547",
          "topics": [
            "0x57143a848ca1934f8edbced05c3d8b6b0bc036184a381189d94cc7a7b8e263cb"
          ],
          "data": "0x00000000000000000000000000000000000000000000000000000000000008ae",
          "blockHash": "0xfb077d992fdc95e2428db7b706b36389aa67633de841d08cf4e828f4f16d43c7",
          "blockNumber": "0x24a305",
          "transactionHash": "0xbf6c2364775334261e3807ead0216cd7e08f059cae0683a75cd25338616324c2",
          "transactionIndex": "0x2",
          "logIndex": "0x1",
          "removed": false
        },
        {
          "address": "0x207f54b4C03C0b6eA424941E70c0510d4a780547",
          "topics": [
            "0x57143a848ca1934f8edbced05c3d8b6b0bc036184a381189d94cc7a7b8e263cb"
          ],
          "data": "0x0000000000000000000000000000000000000000000000000000000000000000",
          "blockHash": "0xfb077d992fdc95e2428db7b706b36389aa67633de841d08cf4e828f4f16d43c7",
          "blockNumber": "0x24a305",
          "transactionHash": "0xbf6c2364775334261e3807ead0216cd7e08f059cae0683a75cd25338616324c2",
          "transactionIndex": "0x2",
          "logIndex": "0x2",
          "removed": false
        },
        {
          "address": "0x6aD83000194DFCf9a0869091B2Ea7D121033163E",
          "topics": [
            "0xddf252ad1be2c89b69c2b068fc378daa952ba7f163c4a11628f55a4df523b3ef",
            "0x00000000000000000000000038eb8b22df3ae7fb21e92881151b365df14ba967",
            "0x000000000000000000000000207f54b4c03c0b6ea424941e70c0510d4a780547"
          ],
          "data": "0x0000000000000000000000000000000000000000000000000000000000000000",
          "blockHash": "0xfb077d992fdc95e2428db7b706b36389aa67633de841d08cf4e828f4f16d43c7",
          "blockNumber": "0x24a305",
          "transactionHash": "0xbf6c2364775334261e3807ead0216cd7e08f059cae0683a75cd25338616324c2",
          "transactionIndex": "0x2",
          "logIndex": "0x3",
          "removed": false
        },
        {
          "address": "0xe61398b1Cb0FBED8268808A983Ad71ECFE2e1Ee9",
          "topics": [
            "0xddf252ad1be2c89b69c2b068fc378daa952ba7f163c4a11628f55a4df523b3ef",
            "0x00000000000000000000000038eb8b22df3ae7fb21e92881151b365df14ba967",
            "0x000000000000000000000000207f54b4c03c0b6ea424941e70c0510d4a780547"
          ],
          "data": "0x0000000000000000000000000000000000000000000000000000000000000000",
          "blockHash": "0xfb077d992fdc95e2428db7b706b36389aa67633de841d08cf4e828f4f16d43c7",
          "blockNumber": "0x24a305",
          "transactionHash": "0xbf6c2364775334261e3807ead0216cd7e08f059cae0683a75cd25338616324c2",
          "transactionIndex": "0x2",
          "logIndex": "0x4",
          "removed": false
        },
        {
          "address": "0x207f54b4C03C0b6eA424941E70c0510d4a780547",
          "topics": [
            "0x57143a848ca1934f8edbced05c3d8b6b0bc036184a381189d94cc7a7b8e263cb"
          ],
          "data": "0x0000000000000000000000000000000000000000000000000000000000000000",
          "blockHash": "0xfb077d992fdc95e2428db7b706b36389aa67633de841d08cf4e828f4f16d43c7",
          "blockNumber": "0x24a305",
          "transactionHash": "0xbf6c2364775334261e3807ead0216cd7e08f059cae0683a75cd25338616324c2",
          "transactionIndex": "0x2",
          "logIndex": "0x5",
          "removed": false
        },
        {
          "address": "0x6aD83000194DFCf9a0869091B2Ea7D121033163E",
          "topics": [
            "0xddf252ad1be2c89b69c2b068fc378daa952ba7f163c4a11628f55a4df523b3ef",
            "0x0000000000000000000000002ced5cc552a856c1d9d5c12d9e0fb96df8d02434",
            "0x00000000000000000000000038eb8b22df3ae7fb21e92881151b365df14ba967"
          ],
          "data": "0x0000000000000000000000000000000000000000000000000015405bda5acedf",
          "blockHash": "0xfb077d992fdc95e2428db7b706b36389aa67633de841d08cf4e828f4f16d43c7",
          "blockNumber": "0x24a305",
          "transactionHash": "0xbf6c2364775334261e3807ead0216cd7e08f059cae0683a75cd25338616324c2",
          "transactionIndex": "0x2",
          "logIndex": "0x6",
          "removed": false
        },
        {
          "address": "0xe61398b1Cb0FBED8268808A983Ad71ECFE2e1Ee9",
          "topics": [
            "0xddf252ad1be2c89b69c2b068fc378daa952ba7f163c4a11628f55a4df523b3ef",
            "0x0000000000000000000000002ced5cc552a856c1d9d5c12d9e0fb96df8d02434",
            "0x00000000000000000000000038eb8b22df3ae7fb21e92881151b365df14ba967"
          ],
          "data": "0x0000000000000000000000000000000000000000000000000015405bda5acedf",
          "blockHash": "0xfb077d992fdc95e2428db7b706b36389aa67633de841d08cf4e828f4f16d43c7",
          "blockNumber": "0x24a305",
          "transactionHash": "0xbf6c2364775334261e3807ead0216cd7e08f059cae0683a75cd25338616324c2",
          "transactionIndex": "0x2",
          "logIndex": "0x7",
          "removed": false
        }
      ],
      "logsBloom": "0x00000000000000000000000000000000000800040000000000000000000000000800000080040000000000000000000000000000010008000000000020000000000000000000000000000008100000000000000000000000000000200000000000000000000000000000006000000000000000000000000080000010000000000000000021000000000400000000000000000000000000008000240000000000000004000000000010000000000000000000000000000400002000000000000200000002000000000000000000000000000200000004000000000000000000000000002100000240000000000000000004000008008000000000000000000000",
      "type": "0x2",
      "transactionHash": "0xbf6c2364775334261e3807ead0216cd7e08f059cae0683a75cd25338616324c2",
      "transactionIndex": "0x2",
      "blockHash": "0xfb077d992fdc95e2428db7b706b36389aa67633de841d08cf4e828f4f16d43c7",
      "blockNumber": "0x24a305",
      "gasUsed": "0x4757f",
      "effectiveGasPrice": "0xf433c",
      "from": "0x2ced5cC552a856c1D9d5c12D9E0fb96Df8D02434",
      "to": "0x3DD5E1E24c8bF9481D1075D74Afd7eC59F81538E",
      "contractAddress": null,
      "l1BaseFeeScalar": "0x7d0",
      "l1BlobBaseFee": "0x1",
      "l1BlobBaseFeeScalar": "0xdbba0",
      "l1Fee": "0x10d4b401b7",
      "l1GasPrice": "0x32c94a6ab",
      "l1GasUsed": "0xa5b"
    }
  ],
  "libraries": [],
  "pending": [],
  "returns": {},
  "timestamp": 1729253463,
  "chain": 1301,
  "commit": "75a7b72"
}