{
  "transactions": [
    {
      "hash": "0x224bde7e80d1406d278c20efeb8c1b21f6de1517d6eab0e09a2a56508ca578fa",
      "transactionType": "CREATE2",
      "contractName": "Implementation",
      "contractAddress": "0x1117a4E3ED92E2E0F662B0E046Dd08eC0bD27FFf",
      "function": null,
      "arguments": null,
      "transaction": {
        "from": "0x2ced5cC552a856c1D9d5c12D9E0fb96Df8D02434",
        "to": "0x4e59b44847b379578588920cA78FbF26c0B4956C",
        "gas": "0x89cb6",
        "value": "0x0",
        "input": "0x0000000000000000000000000000000000000000000000000000000000000fe6608060405234801561000f575f80fd5b50604080516101c081018252600180825260208201819052918101829052606081018290526080810182905260a0810182905260c0810182905260e08101829052610100810182905261012081018290526101408101829052610160810182905261018081018290526101a081019190915261008c903090610091565b6101f6565b80511515612000831615151415806100b55750602081015115156110008316151514155b806100cc5750604081015115156108008316151514155b806100e35750606081015115156104008316151514155b806100fa5750608081015115156102008316151514155b80610111575060a081015115156101008316151514155b80610127575060c0810151151560808316151514155b8061013d575060e0810151151560408316151514155b806101545750610100810151151560208316151514155b8061016b5750610120810151151560108316151514155b806101825750610140810151151560088316151514155b806101995750610160810151151560048316151514155b806101b05750610180810151151560028316151514155b806101c757506101a0810151151560018316151514155b156101dd576101dd630732d7b560e51b836101e1565b5050565b815f526001600160a01b03811660045260245ffd5b61063e806102035f395ff3fe608060405234801561000f575f80fd5b506004361061009b575f3560e01c80639f063efc116100635780639f063efc146101ab578063a910f80f146101ce578063b47b2fb1146101ee578063b6a8b0fa14610233578063e1b4af6914610253575f80fd5b806321d0ee701461009f578063259982e5146100dc5780633440d820146100fb578063575e24b41461011a5780636c2bbe7e14610168575b5f80fd5b6100be6100ad3660046102f5565b63021d0ee760e41b95945050505050565b6040516001600160e01b031990911681526020015b60405180910390f35b6100be6100ea3660046102f5565b63259982e560e01b95945050505050565b6100be61010936600461036c565b6301a206c160e51b95945050505050565b61013d6101283660046103d6565b6315d7892d60e21b5f80955095509592505050565b604080516001600160e01b03199094168452602084019290925262ffffff16908201526060016100d3565b61018b610176366004610430565b633615df3f60e11b5f97509795505050505050565b604080516001600160e01b031990931683526020830191909152016100d3565b61018b6101b9366004610430565b6327c18fbf60e21b5f97509795505050505050565b6100be6101dc3660046104bb565b63a910f80f60e01b9695505050505050565b6102106101fc36600461054b565b63b47b2fb160e01b5f965096945050505050565b604080516001600160e01b03199093168352600f9190910b6020830152016100d3565b6100be6102413660046105ae565b635b54587d60e11b9695505050505050565b6100be6102613660046105ae565b63e1b4af6960e01b9695505050505050565b6001600160a01b0381168114610287575f80fd5b50565b5f60a0828403121561029a575f80fd5b50919050565b5f6080828403121561029a575f80fd5b5f8083601f8401126102c0575f80fd5b50813567ffffffffffffffff8111156102d7575f80fd5b6020830191508360208285010111156102ee575f80fd5b9250929050565b5f805f805f610160868803121561030a575f80fd5b853561031581610273565b9450610324876020880161028a565b93506103338760c088016102a0565b925061014086013567ffffffffffffffff81111561034f575f80fd5b61035b888289016102b0565b969995985093965092949392505050565b5f805f805f6101008688031215610381575f80fd5b853561038c81610273565b945061039b876020880161028a565b935060c08601356103ab81610273565b925060e086013567ffffffffffffffff81111561034f575f80fd5b5f6060828403121561029a575f80fd5b5f805f805f61014086880312156103eb575f80fd5b85356103f681610273565b9450610405876020880161028a565b93506104148760c088016103c6565b925061012086013567ffffffffffffffff81111561034f575f80fd5b5f805f805f805f6101a0888a031215610447575f80fd5b873561045281610273565b96506104618960208a0161028a565b95506104708960c08a016102a0565b94506101408801359350610160880135925061018088013567ffffffffffffffff81111561049c575f80fd5b6104a88a828b016102b0565b989b979a50959850939692959293505050565b5f805f805f8061012087890312156104d1575f80fd5b86356104dc81610273565b95506104eb886020890161028a565b945060c08701356104fb81610273565b935060e0870135600281900b8114610511575f80fd5b925061010087013567ffffffffffffffff81111561052d575f80fd5b61053989828a016102b0565b979a9699509497509295939492505050565b5f805f805f806101608789031215610561575f80fd5b863561056c81610273565b955061057b886020890161028a565b945061058a8860c089016103c6565b9350610120870135925061014087013567ffffffffffffffff81111561052d575f80fd5b5f805f805f8061012087890312156105c4575f80fd5b86356105cf81610273565b95506105de886020890161028a565b945060c0870135935060e0870135925061010087013567ffffffffffffffff81111561052d575f80fdfea26469706673582212206fcb0b21e01f3fedb023d132b5df157e8b08a2be1e9ffa9c340b2ecc8c912a5264736f6c634300081a0033",
        "nonce": "0x29",
        "chainId": "0x515"
      },
      "additionalContracts": [],
      "isFixedGasLimit": false
    },
    {
      "hash": "0xfb378c425239124813f5ed1252ed09aa34e6514bd6bddfd46acd3d402a7bc2cd",
      "transactionType": "CREATE2",
      "contractName": "ProxyContract",
      "contractAddress": "0x15F3F147eB0278b46363529083751363Be248c00",
      "function": null,
      "arguments": null,
      "transaction": {
        "from": "0x2ced5cC552a856c1D9d5c12D9E0fb96Df8D02434",
        "to": "0x4e59b44847b379578588920cA78FbF26c0B4956C",
        "gas": "0x454de",
        "value": "0x0",
        "input": "0x0000000000000000000000000000000000000000000000000000000000003d1f60c06040526007608090815266656e74726f707960c81b60a05260019061002690826100d0565b50348015610032575f80fd5b5061018a565b634e487b7160e01b5f52604160045260245ffd5b600181811c9082168061006057607f821691505b60208210810361007e57634e487b7160e01b5f52602260045260245ffd5b50919050565b601f8211156100cb57805f5260205f20601f840160051c810160208510156100a95750805b601f840160051c820191505b818110156100c8575f81556001016100b5565b50505b505050565b81516001600160401b038111156100e9576100e9610038565b6100fd816100f7845461004c565b84610084565b6020601f82116001811461012f575f83156101185750848201515b5f19600385901b1c1916600184901b1784556100c8565b5f84815260208120601f198516915b8281101561015e578785015182556020948501946001909201910161013e565b508482101561017b57868401515f19600387901b60f8161c191681555b50505050600190811b01905550565b61023a806101975f395ff3fe60806040526004361061002c575f3560e01c806306fdde031461003d578063d784d4261461006757610033565b3661003357005b61003b6100a2565b005b348015610048575f80fd5b506100516100ac565b60405161005e919061016a565b60405180910390f35b348015610072575f80fd5b5061003b61008136600461019f565b5f80546001600160a01b0319166001600160a01b0392909216919091179055565b6100aa610138565b565b600180546100b9906101cc565b80601f01602080910402602001604051908101604052809291908181526020018280546100e5906101cc565b80156101305780601f1061010757610100808354040283529160200191610130565b820191905f5260205f20905b81548152906001019060200180831161011357829003601f168201915b505050505081565b6100aa61014c5f546001600160a01b031690565b365f80375f80365f845af43d5f803e808015610166573d5ff35b3d5ffd5b602081525f82518060208401528060208501604085015e5f604082850101526040601f19601f83011684010191505092915050565b5f602082840312156101af575f80fd5b81356001600160a01b03811681146101c5575f80fd5b9392505050565b600181811c908216806101e057607f821691505b6020821081036101fe57634e487b7160e01b5f52602260045260245ffd5b5091905056fea26469706673582212206b81f4f21e0cd9e82c1afdc89f6807e160c3b1c6512f9a077920cc25b7f2da7564736f6c634300081a0033",
        "nonce": "0x2a",
        "chainId": "0x515"
      },
      "additionalContracts": [],
      "isFixedGasLimit": false
    },
    {
      "hash": "0x1101a99ecee1b604c214f1da4516859d1e2ae60725e9fa6571472a116e0ae11d",
      "transactionType": "CALL",
      "contractName": "ProxyContract",
      "contractAddress": "0x15F3F147eB0278b46363529083751363Be248c00",
      "function": "setImplementation(address)",
      "arguments": [
        "0x1117a4E3ED92E2E0F662B0E046Dd08eC0bD27FFf"
      ],
      "transaction": {
        "from": "0x2ced5cC552a856c1D9d5c12D9E0fb96Df8D02434",
        "to": "0x15F3F147eB0278b46363529083751363Be248c00",
        "gas": "0xec9a",
        "value": "0x0",
        "input": "0xd784d4260000000000000000000000001117a4e3ed92e2e0f662b0e046dd08ec0bd27fff",
        "nonce": "0x2b",
        "chainId": "0x515"
      },
      "additionalContracts": [],
      "isFixedGasLimit": false
    },
    {
      "hash": "0x3d4a2121b4bb8168a3d43d09577b3fb6dcd97306d5a125e21e76b2cfdc6be345",
      "transactionType": "CALL",
      "contractName": null,
      "contractAddress": "0x38EB8B22Df3Ae7fb21e92881151B365Df14ba967",
      "function": "initialize((address,address,uint24,int24,address),uint160,bytes)",
      "arguments": [
        "(0x0000000000000000000000000000000000000000, 0x6f0cD9aC99c852bDBA06F72db93078cbA80A32F5, 3000, 60, 0x15F3F147eB0278b46363529083751363Be248c00)",
        "79228162514264337593543950336",
        "0x"
      ],
      "transaction": {
        "from": "0x2ced5cC552a856c1D9d5c12D9E0fb96Df8D02434",
        "to": "0x38EB8B22Df3Ae7fb21e92881151B365Df14ba967",
        "gas": "0x1241f",
        "value": "0x0",
        "input": "0x695c5bf500000000000000000000000000000000000000000000000000000000000000000000000000000000000000006f0cd9ac99c852bdba06f72db93078cba80a32f50000000000000000000000000000000000000000000000000000000000000bb8000000000000000000000000000000000000000000000000000000000000003c00000000000000000000000015f3f147eb0278b46363529083751363be248c00000000000000000000000000000000000000000100000000000000000000000000000000000000000000000000000000000000000000000000000000000000e00000000000000000000000000000000000000000000000000000000000000000",
        "nonce": "0x2c",
        "chainId": "0x515"
      },
      "additionalContracts": [],
      "isFixedGasLimit": false
    }
  ],
  "receipts": [
    {
      "status": "0x1",
      "cumulativeGasUsed": "0x298951",
      "logs": [],
      "logsBloom": "0x00000000000000000000000000000000000000000000000000000000000000000000000000000000000000000000000000000000000000000000000000000000000000000000000000000000000000000000000000000000000000000000000000000000000000000000000000000000000000000000000000000000000000000000000000000000000000000000000000000000000000000000000000000000000000000000000000000000000000000000000000000000000000000000000000000000000000000000000000000000000000000000000000000000000000000000000000000000000000000000000000000000000000000000000000000000",
      "type": "0x2",
      "transactionHash": "0x224bde7e80d1406d278c20efeb8c1b21f6de1517d6eab0e09a2a56508ca578fa",
      "transactionIndex": "0x8",
      "blockHash": "0xa00e150470c36d1d210c7b74a3166ed420f2807e9c0499bf2a67a54a6e3c873b",
      "blockNumber": "0x28cbd3",
      "gasUsed": "0x63c2d",
      "effectiveGasPrice": "0xf433c",
      "from": "0x2ced5cC552a856c1D9d5c12D9E0fb96Df8D02434",
      "to": "0x4e59b44847b379578588920cA78FbF26c0B4956C",
      "contractAddress": null,
      "l1BaseFeeScalar": "0x7d0",
      "l1BlobBaseFee": "0x1",
      "l1BlobBaseFeeScalar": "0xdbba0",
      "l1Fee": "0x263dfb79c1",
      "l1GasPrice": "0xeff810fa",
      "l1GasUsed": "0x4fae"
    },
    {
      "status": "0x1",
      "cumulativeGasUsed": "0x2cac1f",
      "logs": [],
      "logsBloom": "0x00000000000000000000000000000000000000000000000000000000000000000000000000000000000000000000000000000000000000000000000000000000000000000000000000000000000000000000000000000000000000000000000000000000000000000000000000000000000000000000000000000000000000000000000000000000000000000000000000000000000000000000000000000000000000000000000000000000000000000000000000000000000000000000000000000000000000000000000000000000000000000000000000000000000000000000000000000000000000000000000000000000000000000000000000000000",
      "type": "0x2",
      "transactionHash": "0xfb378c425239124813f5ed1252ed09aa34e6514bd6bddfd46acd3d402a7bc2cd",
      "transactionIndex": "0x9",
      "blockHash": "0xa00e150470c36d1d210c7b74a3166ed420f2807e9c0499bf2a67a54a6e3c873b",
      "blockNumber": "0x28cbd3",
      "gasUsed": "0x322ce",
      "effectiveGasPrice": "0xf433c",
      "from": "0x2ced5cC552a856c1D9d5c12D9E0fb96Df8D02434",
      "to": "0x4e59b44847b379578588920cA78FbF26c0B4956C",
      "contractAddress": null,
      "l1BaseFeeScalar": "0x7d0",
      "l1BlobBaseFee": "0x1",
      "l1BlobBaseFeeScalar": "0xdbba0",
      "l1Fee": "0x178364b6e0",
      "l1GasPrice": "0xeff810fa",
      "l1GasUsed": "0x30fe"
    },
    {
      "status": "0x1",
      "cumulativeGasUsed": "0x27b13",
      "logs": [],
      "logsBloom": "0x00000000000000000000000000000000000000000000000000000000000000000000000000000000000000000000000000000000000000000000000000000000000000000000000000000000000000000000000000000000000000000000000000000000000000000000000000000000000000000000000000000000000000000000000000000000000000000000000000000000000000000000000000000000000000000000000000000000000000000000000000000000000000000000000000000000000000000000000000000000000000000000000000000000000000000000000000000000000000000000000000000000000000000000000000000000",
      "type": "0x2",
      "transactionHash": "0x1101a99ecee1b604c214f1da4516859d1e2ae60725e9fa6571472a116e0ae11d",
      "transactionIndex": "0x3",
      "blockHash": "0x0d666bfa1a7c7404a2b538d4871411b9910b947fd2763eccc83be31166755dee",
      "blockNumber": "0x28cbd4",
      "gasUsed": "0xab4d",
      "effectiveGasPrice": "0xf433c",
      "from": "0x2ced5cC552a856c1D9d5c12D9E0fb96Df8D02434",
      "to": "0x15F3F147eB0278b46363529083751363Be248c00",
      "contractAddress": null,
      "l1BaseFeeScalar": "0x7d0",
      "l1BlobBaseFee": "0x1",
      "l1BlobBaseFeeScalar": "0xdbba0",
      "l1Fee": "0x2ffe69d13",
      "l1GasPrice": "0xeff810fa",
      "l1GasUsed": "0x640"
    },
    {
      "status": "0x1",
      "cumulativeGasUsed": "0x34e92",
      "logs": [
        {
          "address": "0x38EB8B22Df3Ae7fb21e92881151B365Df14ba967",
          "topics": [
            "0xdd466e674ea557f56295e2d0218a125ea4b4f0f6f3307b95f85e6110838d6438",
            "0x64cf3019b6211a00c8779c5979cf35e24348ca204ba893a71780b9a692b0f950",
            "0x0000000000000000000000000000000000000000000000000000000000000000",
            "0x0000000000000000000000006f0cd9ac99c852bdba06f72db93078cba80a32f5"
          ],
          "data": "0x0000000000000000000000000000000000000000000000000000000000000bb8000000000000000000000000000000000000000000000000000000000000003c00000000000000000000000015f3f147eb0278b46363529083751363be248c0000000000000000000000000000000000000000010000000000000000000000000000000000000000000000000000000000000000000000000000000000000000",
          "blockHash": "0x0d666bfa1a7c7404a2b538d4871411b9910b947fd2763eccc83be31166755dee",
          "blockNumber": "0x28cbd4",
          "transactionHash": "0x3d4a2121b4bb8168a3d43d09577b3fb6dcd97306d5a125e21e76b2cfdc6be345",
          "transactionIndex": "0x4",
          "logIndex": "0x1",
          "removed": false
        }
      ],
      "logsBloom": "0x00100000000000000000000000000000000000000000000002000000000000000000000040000100000000000000000000000000000000000000000000000000000000000000000000000000000000000000000000000200000000000000000000000000020000000000004000000800000000000000000000000000000000000000000000000008000400000000000000000001000000000000000000200000000000000000000000000000000000000000000000000400000000000000000000000000000000000000000000000000000000000000000000000000000020000000000000000000000000000000000000000000000000000000400000000000",
      "type": "0x2",
      "transactionHash": "0x3d4a2121b4bb8168a3d43d09577b3fb6dcd97306d5a125e21e76b2cfdc6be345",
      "transactionIndex": "0x4",
      "blockHash": "0x0d666bfa1a7c7404a2b538d4871411b9910b947fd2763eccc83be31166755dee",
      "blockNumber": "0x28cbd4",
      "gasUsed": "0xd37f",
      "effectiveGasPrice": "0xf433c",
      "from": "0x2ced5cC552a856c1D9d5c12D9E0fb96Df8D02434",
      "to": "0x38EB8B22Df3Ae7fb21e92881151B365Df14ba967",
      "contractAddress": null,
      "l1BaseFeeScalar": "0x7d0",
      "l1BlobBaseFee": "0x1",
      "l1BlobBaseFeeScalar": "0xdbba0",
      "l1Fee": "0x3aa69961a",
      "l1GasPrice": "0xeff810fa",
      "l1GasUsed": "0x7a3"
    }
  ],
  "libraries": [],
  "pending": [],
  "returns": {},
  "timestamp": 1729526055,
  "chain": 1301,
  "commit": "3da01e1"
}