{
  "transactions": [
    {
      "hash": "0x7216afad01348228e1aa4133cc12980e3541b6cf256ad272828dbcbefa710ce4",
      "transactionType": "CREATE2",
      "contractName": "Implementation",
      "contractAddress": "0x1117a4E3ED92E2E0F662B0E046Dd08eC0bD27FFf",
      "function": null,
      "arguments": null,
      "transaction": {
        "from": "0x2ced5cC552a856c1D9d5c12D9E0fb96Df8D02434",
        "to": "0x4e59b44847b379578588920cA78FbF26c0B4956C",
        "gas": "0x89cb6",
        "value": "0x0",
        "input": "0x0000000000000000000000000000000000000000000000000000000000000fe6608060405234801561000f575f80fd5b50604080516101c081018252600180825260208201819052918101829052606081018290526080810182905260a0810182905260c0810182905260e08101829052610100810182905261012081018290526101408101829052610160810182905261018081018290526101a081019190915261008c903090610091565b6101f6565b80511515612000831615151415806100b55750602081015115156110008316151514155b806100cc5750604081015115156108008316151514155b806100e35750606081015115156104008316151514155b806100fa5750608081015115156102008316151514155b80610111575060a081015115156101008316151514155b80610127575060c0810151151560808316151514155b8061013d575060e0810151151560408316151514155b806101545750610100810151151560208316151514155b8061016b5750610120810151151560108316151514155b806101825750610140810151151560088316151514155b806101995750610160810151151560048316151514155b806101b05750610180810151151560028316151514155b806101c757506101a0810151151560018316151514155b156101dd576101dd630732d7b560e51b836101e1565b5050565b815f526001600160a01b03811660045260245ffd5b61063e806102035f395ff3fe608060405234801561000f575f80fd5b506004361061009b575f3560e01c80639f063efc116100635780639f063efc146101ab578063a910f80f146101ce578063b47b2fb1146101ee578063b6a8b0fa14610233578063e1b4af6914610253575f80fd5b806321d0ee701461009f578063259982e5146100dc5780633440d820146100fb578063575e24b41461011a5780636c2bbe7e14610168575b5f80fd5b6100be6100ad3660046102f5565b63021d0ee760e41b95945050505050565b6040516001600160e01b031990911681526020015b60405180910390f35b6100be6100ea3660046102f5565b63259982e560e01b95945050505050565b6100be61010936600461036c565b6301a206c160e51b95945050505050565b61013d6101283660046103d6565b6315d7892d60e21b5f80955095509592505050565b604080516001600160e01b03199094168452602084019290925262ffffff16908201526060016100d3565b61018b610176366004610430565b633615df3f60e11b5f97509795505050505050565b604080516001600160e01b031990931683526020830191909152016100d3565b61018b6101b9366004610430565b6327c18fbf60e21b5f97509795505050505050565b6100be6101dc3660046104bb565b63a910f80f60e01b9695505050505050565b6102106101fc36600461054b565b63b47b2fb160e01b5f965096945050505050565b604080516001600160e01b03199093168352600f9190910b6020830152016100d3565b6100be6102413660046105ae565b635b54587d60e11b9695505050505050565b6100be6102613660046105ae565b63e1b4af6960e01b9695505050505050565b6001600160a01b0381168114610287575f80fd5b50565b5f60a0828403121561029a575f80fd5b50919050565b5f6080828403121561029a575f80fd5b5f8083601f8401126102c0575f80fd5b50813567ffffffffffffffff8111156102d7575f80fd5b6020830191508360208285010111156102ee575f80fd5b9250929050565b5f805f805f610160868803121561030a575f80fd5b853561031581610273565b9450610324876020880161028a565b93506103338760c088016102a0565b925061014086013567ffffffffffffffff81111561034f575f80fd5b61035b888289016102b0565b969995985093965092949392505050565b5f805f805f6101008688031215610381575f80fd5b853561038c81610273565b945061039b876020880161028a565b935060c08601356103ab81610273565b925060e086013567ffffffffffffffff81111561034f575f80fd5b5f6060828403121561029a575f80fd5b5f805f805f61014086880312156103eb575f80fd5b85356103f681610273565b9450610405876020880161028a565b93506104148760c088016103c6565b925061012086013567ffffffffffffffff81111561034f575f80fd5b5f805f805f805f6101a0888a031215610447575f80fd5b873561045281610273565b96506104618960208a0161028a565b95506104708960c08a016102a0565b94506101408801359350610160880135925061018088013567ffffffffffffffff81111561049c575f80fd5b6104a88a828b016102b0565b989b979a50959850939692959293505050565b5f805f805f8061012087890312156104d1575f80fd5b86356104dc81610273565b95506104eb886020890161028a565b945060c08701356104fb81610273565b935060e0870135600281900b8114610511575f80fd5b925061010087013567ffffffffffffffff81111561052d575f80fd5b61053989828a016102b0565b979a9699509497509295939492505050565b5f805f805f806101608789031215610561575f80fd5b863561056c81610273565b955061057b886020890161028a565b945061058a8860c089016103c6565b9350610120870135925061014087013567ffffffffffffffff81111561052d575f80fd5b5f805f805f8061012087890312156105c4575f80fd5b86356105cf81610273565b95506105de886020890161028a565b945060c0870135935060e0870135925061010087013567ffffffffffffffff81111561052d575f80fdfea26469706673582212206fcb0b21e01f3fedb023d132b5df157e8b08a2be1e9ffa9c340b2ecc8c912a5264736f6c634300081a0033",
        "nonce": "0x6",
        "chainId": "0x14a34"
      },
      "additionalContracts": [],
      "isFixedGasLimit": false
    },
    {
      "hash": "0xe79ab2bd753b8c235007c7319c8e3ad2306816eb9987a71a35a9be2b685eceea",
      "transactionType": "CREATE2",
      "contractName": "ProxyContract",
      "contractAddress": "0x53C03c8d979A3d21E4680755F54081602e814c00",
      "function": null,
      "arguments": null,
      "transaction": {
        "from": "0x2ced5cC552a856c1D9d5c12D9E0fb96Df8D02434",
        "to": "0x4e59b44847b379578588920cA78FbF26c0B4956C",
        "gas": "0x246f2",
        "value": "0x0",
        "input": "0x00000000000000000000000000000000000000000000000000000000000058466080604052348015600e575f80fd5b5060fb8061001b5f395ff3fe608060405260043610601e575f3560e01c8063d784d42614602c576024565b36602457005b602a6063565b005b3480156036575f80fd5b50602a6042366004609a565b5f80546001600160a01b0319166001600160a01b0392909216919091179055565b6069606b565b565b6069607d5f546001600160a01b031690565b365f80375f80365f845af43d5f803e8080156096573d5ff35b3d5ffd5b5f6020828403121560a9575f80fd5b81356001600160a01b038116811460be575f80fd5b939250505056fea26469706673582212203a38bfd2e953cec3a6e7821064e7b5df644b5cd95d71543c8950c9b95de34f1264736f6c634300081a0033",
        "nonce": "0x7",
        "chainId": "0x14a34"
      },
      "additionalContracts": [],
      "isFixedGasLimit": false
    },
    {
      "hash": "0x1f20b18c16d42dc431d45fe31b35967b2c3cc146314ee2ade956a95631996e9e",
      "transactionType": "CALL",
      "contractName": "ProxyContract",
      "contractAddress": "0x53C03c8d979A3d21E4680755F54081602e814c00",
      "function": "setImplementation(address)",
      "arguments": [
        "0x1117a4E3ED92E2E0F662B0E046Dd08eC0bD27FFf"
      ],
      "transaction": {
        "from": "0x2ced5cC552a856c1D9d5c12D9E0fb96Df8D02434",
        "to": "0x53C03c8d979A3d21E4680755F54081602e814c00",
        "gas": "0xec7d",
        "value": "0x0",
        "input": "0xd784d4260000000000000000000000001117a4e3ed92e2e0f662b0e046dd08ec0bd27fff",
        "nonce": "0x8",
        "chainId": "0x14a34"
      },
      "additionalContracts": [],
      "isFixedGasLimit": false
    },
    {
      "hash": "0x1593cd7419414e0d4afa308fd802040026d3d2a148886e386de22609bc0b00d5",
      "transactionType": "CALL",
      "contractName": null,
      "contractAddress": "0x39BF2eFF94201cfAA471932655404F63315147a4",
      "function": "initialize((address,address,uint24,int24,address),uint160,bytes)",
      "arguments": [
        "(0x6f0cD9aC99c852bDBA06F72db93078cbA80A32F5, 0x8dB7EFd30A632eD236eAbde82286551f843D5487, 3000, 60, 0x53C03c8d979A3d21E4680755F54081602e814c00)",
        "79228162514264337593543950336",
        "0x"
      ],
      "transaction": {
        "from": "0x2ced5cC552a856c1D9d5c12D9E0fb96Df8D02434",
        "to": "0x39BF2eFF94201cfAA471932655404F63315147a4",
        "gas": "0x12584",
        "value": "0x0",
        "input": "0x695c5bf50000000000000000000000006f0cd9ac99c852bdba06f72db93078cba80a32f50000000000000000000000008db7efd30a632ed236eabde82286551f843d54870000000000000000000000000000000000000000000000000000000000000bb8000000000000000000000000000000000000000000000000000000000000003c00000000000000000000000053c03c8d979a3d21e4680755f54081602e814c00000000000000000000000000000000000000000100000000000000000000000000000000000000000000000000000000000000000000000000000000000000e00000000000000000000000000000000000000000000000000000000000000000",
        "nonce": "0x9",
        "chainId": "0x14a34"
      },
      "additionalContracts": [],
      "isFixedGasLimit": false
    }
  ],
  "receipts": [
    {
      "status": "0x1",
      "cumulativeGasUsed": "0x4e6fa4",
      "logs": [],
      "logsBloom": "0x00000000000000000000000000000000000000000000000000000000000000000000000000000000000000000000000000000000000000000000000000000000000000000000000000000000000000000000000000000000000000000000000000000000000000000000000000000000000000000000000000000000000000000000000000000000000000000000000000000000000000000000000000000000000000000000000000000000000000000000000000000000000000000000000000000000000000000000000000000000000000000000000000000000000000000000000000000000000000000000000000000000000000000000000000000000",
      "type": "0x2",
      "transactionHash": "0x7216afad01348228e1aa4133cc12980e3541b6cf256ad272828dbcbefa710ce4",
      "transactionIndex": "0x1b",
      "blockHash": "0xdf73e84cc2e8dfac41c41be41d38e3b9f3554f4608e360204419b7569f4664b8",
      "blockNumber": "0xf96d45",
      "gasUsed": "0x63c2d",
      "effectiveGasPrice": "0x23f22ef7",
      "from": "0x2ced5cC552a856c1D9d5c12D9E0fb96Df8D02434",
      "to": "0x4e59b44847b379578588920cA78FbF26c0B4956C",
      "contractAddress": null,
      "l1BaseFeeScalar": "0x44d",
      "l1BlobBaseFee": "0x1",
      "l1BlobBaseFeeScalar": "0xa118b",
      "l1Fee": "0x26033dd",
      "l1GasPrice": "0x1b0b7f",
      "l1GasUsed": "0x4fc9"
    },
    {
      "status": "0x1",
      "cumulativeGasUsed": "0x5015b0",
      "logs": [],
      "logsBloom": "0x00000000000000000000000000000000000000000000000000000000000000000000000000000000000000000000000000000000000000000000000000000000000000000000000000000000000000000000000000000000000000000000000000000000000000000000000000000000000000000000000000000000000000000000000000000000000000000000000000000000000000000000000000000000000000000000000000000000000000000000000000000000000000000000000000000000000000000000000000000000000000000000000000000000000000000000000000000000000000000000000000000000000000000000000000000000",
      "type": "0x2",
      "transactionHash": "0xe79ab2bd753b8c235007c7319c8e3ad2306816eb9987a71a35a9be2b685eceea",
      "transactionIndex": "0x1c",
      "blockHash": "0xdf73e84cc2e8dfac41c41be41d38e3b9f3554f4608e360204419b7569f4664b8",
      "blockNumber": "0xf96d45",
      "gasUsed": "0x1a60c",
      "effectiveGasPrice": "0x23f22ef7",
      "from": "0x2ced5cC552a856c1D9d5c12D9E0fb96Df8D02434",
      "to": "0x4e59b44847b379578588920cA78FbF26c0B4956C",
      "contractAddress": null,
      "l1BaseFeeScalar": "0x44d",
      "l1BlobBaseFee": "0x1",
      "l1BlobBaseFeeScalar": "0xa118b",
      "l1Fee": "0x83f3a1",
      "l1GasPrice": "0x1b0b7f",
      "l1GasUsed": "0x114f"
    },
    {
      "status": "0x1",
      "cumulativeGasUsed": "0x50c0e7",
      "logs": [],
      "logsBloom": "0x00000000000000000000000000000000000000000000000000000000000000000000000000000000000000000000000000000000000000000000000000000000000000000000000000000000000000000000000000000000000000000000000000000000000000000000000000000000000000000000000000000000000000000000000000000000000000000000000000000000000000000000000000000000000000000000000000000000000000000000000000000000000000000000000000000000000000000000000000000000000000000000000000000000000000000000000000000000000000000000000000000000000000000000000000000000",
      "type": "0x2",
      "transactionHash": "0x1f20b18c16d42dc431d45fe31b35967b2c3cc146314ee2ade956a95631996e9e",
      "transactionIndex": "0x1d",
      "blockHash": "0xdf73e84cc2e8dfac41c41be41d38e3b9f3554f4608e360204419b7569f4664b8",
      "blockNumber": "0xf96d45",
      "gasUsed": "0xab37",
      "effectiveGasPrice": "0x23f22ef7",
      "from": "0x2ced5cC552a856c1D9d5c12D9E0fb96Df8D02434",
      "to": "0x53C03c8d979A3d21E4680755F54081602e814c00",
      "contractAddress": null,
      "l1BaseFeeScalar": "0x44d",
      "l1BlobBaseFee": "0x1",
      "l1BlobBaseFeeScalar": "0xa118b",
      "l1Fee": "0x2fa4b0",
      "l1GasPrice": "0x1b0b7f",
      "l1GasUsed": "0x640"
    },
    {
      "status": "0x1",
      "cumulativeGasUsed": "0x519567",
      "logs": [
        {
          "address": "0x39BF2eFF94201cfAA471932655404F63315147a4",
          "topics": [
            "0xdd466e674ea557f56295e2d0218a125ea4b4f0f6f3307b95f85e6110838d6438",
            "0xc0d39437acf81e542c118ae9d308d5760a0a835a7a662afb8383d843b658499f",
            "0x0000000000000000000000006f0cd9ac99c852bdba06f72db93078cba80a32f5",
            "0x0000000000000000000000008db7efd30a632ed236eabde82286551f843d5487"
          ],
          "data": "0x0000000000000000000000000000000000000000000000000000000000000bb8000000000000000000000000000000000000000000000000000000000000003c00000000000000000000000053c03c8d979a3d21e4680755f54081602e814c0000000000000000000000000000000000000000010000000000000000000000000000000000000000000000000000000000000000000000000000000000000000",
          "blockHash": "0xdf73e84cc2e8dfac41c41be41d38e3b9f3554f4608e360204419b7569f4664b8",
          "blockNumber": "0xf96d45",
          "transactionHash": "0x1593cd7419414e0d4afa308fd802040026d3d2a148886e386de22609bc0b00d5",
          "transactionIndex": "0x1e",
          "logIndex": "0x3e",
          "removed": false
        }
      ],
      "logsBloom": "0x00000000000000000000000000000000000000000000000000000000800000000000000000000100000000000000000000000000000000000004000000000000000000000800000000000000000000000000000000000200000000000000000000008000000000000000000000000000000000000000000000000010000000200000000000000008000000000000000000000001000000000000000000200000000000000008000000000000000000000000000004000000000000000000000000000000000000000000000000000000000000000000000000000000000000000000000000000800000000000000000000000000000000000000400000000000",
      "type": "0x2",
      "transactionHash": "0x1593cd7419414e0d4afa308fd802040026d3d2a148886e386de22609bc0b00d5",
      "transactionIndex": "0x1e",
      "blockHash": "0xdf73e84cc2e8dfac41c41be41d38e3b9f3554f4608e360204419b7569f4664b8",
      "blockNumber": "0xf96d45",
      "gasUsed": "0xd480",
      "effectiveGasPrice": "0x23f22ef7",
      "from": "0x2ced5cC552a856c1D9d5c12D9E0fb96Df8D02434",
      "to": "0x39BF2eFF94201cfAA471932655404F63315147a4",
      "contractAddress": null,
      "l1BaseFeeScalar": "0x44d",
      "l1BlobBaseFee": "0x1",
      "l1BlobBaseFeeScalar": "0xa118b",
      "l1Fee": "0x46f9c2",
      "l1GasPrice": "0x1b0b7f",
      "l1GasUsed": "0x94f"
    }
  ],
  "libraries": [],
  "pending": [],
  "returns": {},
  "timestamp": 1728461163,
  "chain": 84532,
  "commit": "24f2c0a"
}